{
  "_format": "hh-sol-artifact-1",
  "contractName": "EnsName",
  "sourceName": "src/backend/contracts/EnsName.sol",
  "abi": [
    {
      "inputs": [],
      "stateMutability": "nonpayable",
      "type": "constructor"
    },
    {
      "inputs": [
        {
          "internalType": "uint256",
          "name": "_itemId",
          "type": "uint256"
        }
      ],
      "name": "buyENS",
      "outputs": [],
      "stateMutability": "payable",
      "type": "function"
    },
    {
      "inputs": [],
      "name": "ensContract",
      "outputs": [
        {
          "internalType": "contract IERC721",
          "name": "",
          "type": "address"
        }
      ],
      "stateMutability": "view",
      "type": "function"
    },
    {
      "inputs": [],
      "name": "itemCount",
      "outputs": [
        {
          "internalType": "uint256",
          "name": "",
          "type": "uint256"
        }
      ],
      "stateMutability": "view",
      "type": "function"
    },
    {
      "inputs": [
        {
          "internalType": "uint256",
          "name": "",
          "type": "uint256"
        }
      ],
      "name": "items",
      "outputs": [
        {
          "internalType": "uint256",
          "name": "itemId",
          "type": "uint256"
        },
        {
          "internalType": "string",
          "name": "name",
          "type": "string"
        },
        {
          "internalType": "uint256",
          "name": "tokenId",
          "type": "uint256"
        },
        {
          "internalType": "uint256",
          "name": "price",
          "type": "uint256"
        },
        {
          "internalType": "bool",
          "name": "listed",
          "type": "bool"
        },
        {
          "internalType": "bool",
          "name": "isOwned",
          "type": "bool"
        },
        {
          "internalType": "address payable",
          "name": "seller",
          "type": "address"
        }
      ],
      "stateMutability": "view",
      "type": "function"
    },
    {
      "inputs": [
        {
          "internalType": "string",
          "name": "_name",
          "type": "string"
        },
        {
          "internalType": "uint256",
          "name": "_tokenId",
          "type": "uint256"
        },
        {
          "internalType": "uint256",
          "name": "_price",
          "type": "uint256"
        }
      ],
      "name": "listENS",
      "outputs": [],
      "stateMutability": "nonpayable",
      "type": "function"
    },
    {
      "stateMutability": "payable",
      "type": "receive"
    }
  ],
  "bytecode": "0x60a060405234801561001057600080fd5b507357f1887a8bf19b14fc0df6fd9b2acc9af147ea8573ffffffffffffffffffffffffffffffffffffffff1660808173ffffffffffffffffffffffffffffffffffffffff168152505060805161107b61007b600039600081816102c30152610632015261107b6000f3fe60806040526004361061004e5760003560e01c80634783de501461005a5780636881e763146100835780636bfb0d01146100ae578063bfb231d2146100d9578063f3eee3851461011c57610055565b3661005557005b600080fd5b34801561006657600080fd5b50610081600480360381019061007c91906109d1565b610138565b005b34801561008f57600080fd5b506100986102c1565b6040516100a59190610abf565b60405180910390f35b3480156100ba57600080fd5b506100c36102e5565b6040516100d09190610ae9565b60405180910390f35b3480156100e557600080fd5b5061010060048036038101906100fb9190610b04565b6102eb565b6040516101139796959493929190610bf5565b60405180910390f35b61013660048036038101906101319190610b04565b6103ef565b005b6000811161017b576040517f08c379a000000000000000000000000000000000000000000000000000000000815260040161017290610cb7565b60405180910390fd5b60008081548092919061018d90610d06565b91905055506040518060e0016040528060005481526020018481526020018381526020018281526020016001151581526020016000151581526020013373ffffffffffffffffffffffffffffffffffffffff16815250600160008054815260200190815260200160002060008201518160000155602082015181600101908051906020019061021d92919061079e565b50604082015181600201556060820151816003015560808201518160040160006101000a81548160ff02191690831515021790555060a08201518160040160016101000a81548160ff02191690831515021790555060c08201518160040160026101000a81548173ffffffffffffffffffffffffffffffffffffffff021916908373ffffffffffffffffffffffffffffffffffffffff160217905550905050505050565b7f000000000000000000000000000000000000000000000000000000000000000081565b60005481565b600160205280600052604060002060009150905080600001549080600101805461031490610d7e565b80601f016020809104026020016040519081016040528092919081815260200182805461034090610d7e565b801561038d5780601f106103625761010080835404028352916020019161038d565b820191906000526020600020905b81548152906001019060200180831161037057829003601f168201915b5050505050908060020154908060030154908060040160009054906101000a900460ff16908060040160019054906101000a900460ff16908060040160029054906101000a900473ffffffffffffffffffffffffffffffffffffffff16905087565b6000600160008381526020019081526020016000206040518060e00160405290816000820154815260200160018201805461042990610d7e565b80601f016020809104026020016040519081016040528092919081815260200182805461045590610d7e565b80156104a25780601f10610477576101008083540402835291602001916104a2565b820191906000526020600020905b81548152906001019060200180831161048557829003601f168201915b5050505050815260200160028201548152602001600382015481526020016004820160009054906101000a900460ff161515151581526020016004820160019054906101000a900460ff161515151581526020016004820160029054906101000a900473ffffffffffffffffffffffffffffffffffffffff1673ffffffffffffffffffffffffffffffffffffffff1673ffffffffffffffffffffffffffffffffffffffff168152505090508060600151341015610594576040517f08c379a000000000000000000000000000000000000000000000000000000000815260040161058b90610dfc565b60405180910390fd5b6000821180156105a657506000548211155b6105e5576040517f08c379a00000000000000000000000000000000000000000000000000000000081526004016105dc90610e68565b60405180910390fd5b600115158160800151151514610630576040517f08c379a000000000000000000000000000000000000000000000000000000000815260040161062790610efa565b60405180910390fd5b7f000000000000000000000000000000000000000000000000000000000000000073ffffffffffffffffffffffffffffffffffffffff166323b872dd8260c001513384604001516040518463ffffffff1660e01b815260040161069593929190610f5c565b600060405180830381600087803b1580156106af57600080fd5b505af11580156106c3573d6000803e3d6000fd5b50505050600081608001901515908115158152505060018160a001901515908115158152505060008160c0015173ffffffffffffffffffffffffffffffffffffffff163460405161071390610fc4565b60006040518083038185875af1925050503d8060008114610750576040519150601f19603f3d011682016040523d82523d6000602084013e610755565b606091505b5050905080610799576040517f08c379a000000000000000000000000000000000000000000000000000000000815260040161079090611025565b60405180910390fd5b505050565b8280546107aa90610d7e565b90600052602060002090601f0160209004810192826107cc5760008555610813565b82601f106107e557805160ff1916838001178555610813565b82800160010185558215610813579182015b828111156108125782518255916020019190600101906107f7565b5b5090506108209190610824565b5090565b5b8082111561083d576000816000905550600101610825565b5090565b6000604051905090565b600080fd5b600080fd5b600080fd5b600080fd5b6000601f19601f8301169050919050565b7f4e487b7100000000000000000000000000000000000000000000000000000000600052604160045260246000fd5b6108a88261085f565b810181811067ffffffffffffffff821117156108c7576108c6610870565b5b80604052505050565b60006108da610841565b90506108e6828261089f565b919050565b600067ffffffffffffffff82111561090657610905610870565b5b61090f8261085f565b9050602081019050919050565b82818337600083830152505050565b600061093e610939846108eb565b6108d0565b90508281526020810184848401111561095a5761095961085a565b5b61096584828561091c565b509392505050565b600082601f83011261098257610981610855565b5b813561099284826020860161092b565b91505092915050565b6000819050919050565b6109ae8161099b565b81146109b957600080fd5b50565b6000813590506109cb816109a5565b92915050565b6000806000606084860312156109ea576109e961084b565b5b600084013567ffffffffffffffff811115610a0857610a07610850565b5b610a148682870161096d565b9350506020610a25868287016109bc565b9250506040610a36868287016109bc565b9150509250925092565b600073ffffffffffffffffffffffffffffffffffffffff82169050919050565b6000819050919050565b6000610a85610a80610a7b84610a40565b610a60565b610a40565b9050919050565b6000610a9782610a6a565b9050919050565b6000610aa982610a8c565b9050919050565b610ab981610a9e565b82525050565b6000602082019050610ad46000830184610ab0565b92915050565b610ae38161099b565b82525050565b6000602082019050610afe6000830184610ada565b92915050565b600060208284031215610b1a57610b1961084b565b5b6000610b28848285016109bc565b91505092915050565b600081519050919050565b600082825260208201905092915050565b60005b83811015610b6b578082015181840152602081019050610b50565b83811115610b7a576000848401525b50505050565b6000610b8b82610b31565b610b958185610b3c565b9350610ba5818560208601610b4d565b610bae8161085f565b840191505092915050565b60008115159050919050565b610bce81610bb9565b82525050565b6000610bdf82610a40565b9050919050565b610bef81610bd4565b82525050565b600060e082019050610c0a600083018a610ada565b8181036020830152610c1c8189610b80565b9050610c2b6040830188610ada565b610c386060830187610ada565b610c456080830186610bc5565b610c5260a0830185610bc5565b610c5f60c0830184610be6565b98975050505050505050565b7f50726963652073686f756c642062652067726561746572207468616e20300000600082015250565b6000610ca1601e83610b3c565b9150610cac82610c6b565b602082019050919050565b60006020820190508181036000830152610cd081610c94565b9050919050565b7f4e487b7100000000000000000000000000000000000000000000000000000000600052601160045260246000fd5b6000610d118261099b565b91507fffffffffffffffffffffffffffffffffffffffffffffffffffffffffffffffff821415610d4457610d43610cd7565b5b600182019050919050565b7f4e487b7100000000000000000000000000000000000000000000000000000000600052602260045260246000fd5b60006002820490506001821680610d9657607f821691505b60208210811415610daa57610da9610d4f565b5b50919050565b7f50726963652073656e74206973206e6f7420636f727265637400000000000000600082015250565b6000610de6601983610b3c565b9150610df182610db0565b602082019050919050565b60006020820190508181036000830152610e1581610dd9565b9050919050565b7f57726f6e67206974656d49640000000000000000000000000000000000000000600082015250565b6000610e52600c83610b3c565b9150610e5d82610e1c565b602082019050919050565b60006020820190508181036000830152610e8181610e45565b9050919050565b7f54686973206974656d20697320686173206e6f74206265656e206c697374656460008201527f20666f722073616c650000000000000000000000000000000000000000000000602082015250565b6000610ee4602983610b3c565b9150610eef82610e88565b604082019050919050565b60006020820190508181036000830152610f1381610ed7565b9050919050565b6000610f2582610a8c565b9050919050565b610f3581610f1a565b82525050565b6000610f4682610a40565b9050919050565b610f5681610f3b565b82525050565b6000606082019050610f716000830186610f2c565b610f7e6020830185610f4d565b610f8b6040830184610ada565b949350505050565b600081905092915050565b50565b6000610fae600083610f93565b9150610fb982610f9e565b600082019050919050565b6000610fcf82610fa1565b9150819050919050565b7f4661696c656420746f2073656e64204574686572000000000000000000000000600082015250565b600061100f601483610b3c565b915061101a82610fd9565b602082019050919050565b6000602082019050818103600083015261103e81611002565b905091905056fea264697066735822122048f5a202e29a619a8c9ac1471a2f18bd3b3504fb1f0033f80e86f85d45fc626764736f6c63430008090033",
  "linkReferences": {},
  "deployedLinkReferences": {}
}